:1000000002308A00D52A0000FF00030E8301A10000
:100010000A08A0008A010408A2007708A300780853
:10002000A4007908A5007A08A600831383120B1E8A
:100030001B288B182C28220884002308F70024088A
:10004000F8002508F9002608FA0020088A00210E89
:100050008300FF0E7F0E09008A110A1206290A107A
:100060008A100A1182073134323433343434003484
:10007000443084008313000803194B280630F8002D
:10008000F701F70B4128F80B40287B30F700F70BFE
:100090004728800B3E2808000330C402031C5A285E
:1000A000443084008313000803195A28582858281C
:1000B000800B572808004108F73E0318DD28093E49
:1000C000DE2887140530C40038208710DD28871407
:1000D0000F30C40038208710DD2887142830C40072
:1000E000382087102830C400382087142830C400F6
:1000F00038208710DD2887140230C300C830C400C0
:100100003820C30B7E288710C830C40038208714DD
:100110000230C300C830C4003820C30B8A288710BF
:10012000DD2887141E30C400382087103230C40008
:10013000382087141E30C40038208710DD2887142B
:100140000A30C400382087101430C40038208714C7
:100150000A30C40038208710DD28C2014208053C5F
:10016000031CBC2887145030C40038208710283066
:10017000C4003820C20AAE28DD2807150230C400AA
:1001800038203230C4004C2007111230C40038200F
:10019000DD2807150130C40038200230C300F730D5
:1001A000C4004C20C30BCF280330F700F70BD62830
:1001B000000007111230C400382008000A108A100D
:1001C0000A118207612867286D287B2891289F28BB
:1001D000AD28BD28C928A801A901BF013F08053CD9
:1001E000031CF9282A303F07840083138001BF0ACB
:1001F000EE288610C0014008093C031C0429083081
:10020000C1005B20C00AFB2834100800B001EB20BD
:1002100086140230BF009630C4003820BF0B0B2973
:1002200086100430C1005B208B108A110A121B2833
:10023000B80108142130F700F70B1C29081E2329E8
:100240003130B8002C29881E28293230B8002C29DA
:10025000081F2C293330B8000810B80803193329B7
:100260003808F8007D2988142130F700F70B36296B
:10027000081E3D293430B8004629881E42293530F1
:10028000B8004629081F46293630B8008810B8083B
:1002900003194D293808F8007D2908152130F70089
:1002A000F70B5029081E57293730B8006029881EDF
:1002B0005C293830B8006029081F60293930B8003F
:1002C0000811B808031967293808F8007D2988152E
:1002D0002130F700F70B6A29081E71292A30B8006F
:1002E0007A29881E76293030B8007A29081F7A29A1
:1002F0002330B80088113808F8008A110A12142B2C
:100300000A30B1070318B20A08003208123C031879
:10031000A029FF3A031D90293108873C0318A02922
:10032000A7018B1BA7178B130330C1005B20A71BF2
:100330008B17A7018B1BA7178B13EB20A71B8B1702
:100340008A110A124C2B38082F3C0318CB29380885
:10035000393C031CCB292908033C031CBF2929086D
:10036000A90A2A3E8400831338088000A7018B1B4A
:10037000A7178B13C1015B20A71B8B17CA29061572
:10038000A7018B1BA7178B130330C1005B20A71B92
:100390008B1706116B2A38082A3C031DFD29A90872
:1003A0000319EC29A9032A3029078400831380014B
:1003B000A7018B1BA7178B130130C1005B20A71B64
:1003C0008B17A908031DEB29A7018B1BA7178B13FC
:1003D000EB20A71B8B17FC29A7018B1BA7178B13DF
:1003E000EB20A71B8B17A7018B1BA7178B130330C1
:1003F000C1005B20A71B8B176B2A3808233C031D09
:100400006B2A2908043C0319082A0030F800202A26
:10041000B9013908033C031C1E2A2A30390784001D
:1004200083130008BA0039082F20F8003A02031994
:100430001C2A0030F800202AB90A092A0130F800E5
:10044000F8080319442A0230A800B001B201B10132
:1004500034108614A7018B1BA7178B130230C10021
:100460005B20A71B8B17B9013908093C031C432AE1
:10047000A7018B1BA7178B130730C1005B20A71B9D
:100480008B17B90A342A6B2AB00A0615A7018B1BF1
:10049000A7178B130330C1005B20A71B8B170430F9
:1004A000B900A7018B1BA7178B13FA30C4003820A3
:1004B000A71B8B17B90B512A06113008023C0318F1
:1004C000642A0330A8006B2AA7018B1BA7178B1384
:1004D000EB20A71B8B178A110A12532B3208393CC9
:1004E00003188A2AFF3A031D792A3108973C03181A
:1004F0008A2AA7018B1BA7178B13EB20A71B8B172F
:10050000A7018B1BA7178B130430C1005B20A71B0F
:100510008B17A12A32082D3C0318A12AFF3A031D8C
:10052000952A3108DF3C0318A12A3418A12AA70113
:100530008B1BA7178B130530C1005B20A71B8B17E4
:1005400034148A110A12562B3808233C031DB42A8E
:10055000B201B101A7018B1BA7178B130230C10099
:100560005B20A71B8B17D22A38082A3C031DC92AF7
:10057000A7018B1BA7178B13EB20A71B8B17A701BA
:100580008B1BA7178B130430C1005B20A71B8B1795
:10059000D22AA7018B1BA7178B130330C1005B2046
:1005A000A71B8B178A110A125B2B03081F398300C4
:1005B000A801A901B001B201B101B3013410831641
:1005C00003170908C039890003131F129F12003056
:1005D000031788008312870188018901831383161A
:1005E00088018901013003138600003087007030D4
:1005F000880083128601870188010B168316011774
:10060000C03083128B04A7018B1BA7178B13EB2021
:10061000A71B8B17A7018B1BA7178B130430C100D7
:100620005B20A71B8B1718297808B5003610B50872
:1006300003191D2BB308031936143508B300280815
:1006400003192C2B013A03194A2B033A0319542B93
:10065000013A03195C2B802B361C492B35082F3CA3
:100660000318492B3508393C031C492B0130A800DD
:10067000B201B1012908A90A2A3E84008313350872
:100680008000A7018B1BA7178B13C1015B20A71B41
:100690008B17872B80218529361C532BB201B10182
:1006A0003508B800A329872B80216E2A361C5B2BC6
:1006B0003508B800A42A872BB70137080E3C031C65
:1006C000772B0615A7018B1BA7178B130630C100CC
:1006D0005B20A71B8B170611A7018B1BA7178B137A
:1006E0000630C1005B20A71B8B17B70A5D2BB0013A
:1006F000A7018B1BA7178B13EB20A71B8B17872B2F
:10070000A7018B1BA7178B13EB20A71B8B17A70128
:100710008B1BA7178B130A30C4003820A71B8B171D
:04072000132B630034
:04400E00E22FFF3F5F
:00000001FF
;PIC16F887
;CRC=00D0  CREATED="07-May-26 11:58"
